:100000000C942A000C94010C0C94340C0C94670C86
:100010000C9447000C9447000C9447000C94010882
:100020000C9447000C9447000C94540A0C94E50976
:100030000C9447000C9447000C9447000C94470024
:100040000C9447000C9447000C9447000C94470014
:100050000C94470011241FBECFE5D8E0DEBFCDBF12
:1000600011E0A0E6B0E0E4E5FDE402C005900D92E9
:10007000AC38B107D9F711E0ACE8B1E001C01D928E
:10008000A43AB107E1F70E9460250C94A8260C94CD
:100090000000EF92FF920F931F937B018C0120E0F1
:1000A00030E040E05FE40E94F50388238CF0C80153
:1000B000B70120E030E040E05FE40E94C1010E940F
:1000C00055049B01AC01205030404040504806C0D0
:1000D000C801B7010E9455049B01AC01B901CA01D6
:1000E0001F910F91FF90EF900895A0E0B0E0EBE733
:1000F000F0E00C947126DC012B01FA019C91923006
:1001000008F439C1EB018881823008F433C194309E
:1001100069F4843009F02FC111969C91119789815F
:10012000981709F428C1A0E6B0E025C1843009F48D
:1001300021C18230A9F4923009F01DC19A01AD01AC
:1001400088E0EA010990AE01E90109929E0181501F
:10015000C1F7E201898111969C918923818308C1AD
:10016000923009F407C112962D903C901397EB0141
:100170008A819B811496AD90BD90CD90DC901797AD
:10018000EC80FD800E811F819101281B390BB90184
:1001900037FF04C066277727621B730B6032710537
:1001A0000CF061C0121613066CF537014801062EDB
:1001B00004C096948794779467940A94D2F721E0C8
:1001C00030E040E050E004C0220F331F441F551FB1
:1001D0006A95D2F721503040404050402E213F21B7
:1001E00040235123211531054105510521F021E01E
:1001F00030E040E050E079018A01E628F72808293C
:1002000019293CC0232BD1F1260E371E350146019A
:10021000062E04C096948794779467940A94D2F734
:1002200021E030E040E050E004C0220F331F441FC3
:10023000551F6A95D2F721503040404050402A2146
:100240003B214C215D21211531054105510521F04E
:1002500021E030E040E050E059016A01A628B728CB
:10026000C828D9280BC0821593052CF01C01AA249C
:10027000BB24650103C0EE24FF24870111969C91E5
:10028000D20111968C91981709F445C0992339F041
:10029000A80197012A193B094C095D0906C0A6016E
:1002A00095012E193F09400B510B57FD08C01182D3
:1002B0003382228224833583468357831DC081E0A5
:1002C00081833382228288279927DC01821B930B4A
:1002D000A40BB50B84839583A683B7830DC0220F2F
:1002E000331F441F551F24833583468357838281E0
:1002F000938101979383828324813581468157813D
:10030000DA01C9010197A109B1098F5F9F4FAF4F72
:10031000BF4328F30BC0918333822282EA0CFB1C7B
:100320000C1D1D1DE482F5820683178383E0808304
:10033000248135814681578157FF1AC0C901AA27F8
:1003400097FDA095BA2F81709070A070B0705695EF
:10035000479537952795822B932BA42BB52B848318
:100360009583A683B7838281938101969383828349
:10037000DF0101C0D201CD01CDB7DEB7E2E10C94BF
:100380008D26A0E2B0E0E7ECF1E00C947D266983D5
:100390007A838B839C832D833E834F835887E9E048
:1003A000EE2EF12CEC0EFD1ECE010196B7010E943F
:1003B00046068E010F5E1F4FCE010596B8010E94C2
:1003C00046068A8991E089278A8BC701B801AE0168
:1003D000475E5F4F0E9475000E947105A096E6E09F
:1003E0000C949926A0E2B0E0E8EFF1E00C947D26B1
:1003F00069837A838B839C832D833E834F835887C5
:10040000F9E0EF2EF12CEC0EFD1ECE010196B701A6
:100410000E9446068E010F5E1F4FCE010596B80161
:100420000E944606C701B801AE01475E5F4F0E94B9
:1004300075000E947105A096E6E00C949926A0E252
:10044000B0E0E5E2F2E00C94712669837A838B8355
:100450009C832D833E834F835887CE010196BE0136
:10046000675F7F4F0E944606CE010596BE016F5E14
:100470007F4F0E9446069985923088F089898230A4
:10048000C8F0943019F4823051F404C0843029F457
:10049000923081F480E690E0C6C0923049F420E0CA
:1004A0009A858A89981321E02A87CE010996BBC0D4
:1004B000823049F420E09A858A89981321E02A8BBA
:1004C000CE014196B0C02D843E844F8458886D88FB
:1004D0007E888F88988CEE24FF248701AA24BB2471
:1004E000650140E050E060E070E0E0E0F0E0C10174
:1004F00081709070892BE9F0E60CF71C081D191D1E
:100500009A01AB012A0D3B1D4C1D5D1D80E090E062
:10051000A0E0B0E0E614F7040805190520F481E036
:1005200090E0A0E0B0E0BA01A901480F591F6A1F8E
:100530007B1FAA0CBB1CCC1CDD1C97FE08C081E0F5
:1005400090E0A0E0B0E0A82AB92ACA2ADB2A3196B6
:10055000E032F10549F0660C771C881C991C569412
:10056000479437942794C3CFFA85EA892B893C892D
:100570008B859C85280F391F2E5F3F4F17C0CA01FE
:1005800081709070892B61F016950795F794E79428
:1005900080E090E0A0E0B0E8E82AF92A0A2B1B2BC3
:1005A00076956795579547952F5F3F4F77FDE7CF36
:1005B0000CC0440F551F661F771F17FD4160EE0CDE
:1005C000FF1C001F111F21503040403090E05907A0
:1005D00090E0690790E4790760F32B8F3C8FDB0193
:1005E000CA018F779070A070B07080349105A1051A
:1005F000B10561F447FD0AC0E114F10401051105DC
:1006000029F0405C5F4F6F4F7F4F40781A8EFE1786
:1006100011F081E08A8F4D8F5E8F6F8F78A383E01A
:10062000898FCE0149960E947105A096E2E10C9453
:100630008D26A8E1B0E0EFE1F3E00C947926698320
:100640007A838B839C832D833E834F835887B9E0C5
:10065000EB2EF12CEC0EFD1ECE010196B7010E948F
:1006600046068E010F5E1F4FCE010596B8010E940F
:1006700046062985223008F47EC03989323010F4CC
:10068000B8017CC08A859A8989278A87243011F02D
:10069000223031F4231709F06EC060E670E06EC0BE
:1006A000343039F41D861E861F86188A1C861B86E8
:1006B00004C0323021F484E08987B7015FC02B8504
:1006C0003C858B899C89281B390B3C872B87ED84C3
:1006D000FE840F851889AD88BE88CF88D88CEA142F
:1006E000FB040C051D0540F4EE0CFF1C001F111F40
:1006F000215030403C872B8720E030E040E050E044
:1007000080E090E0A0E0B0E460E070E0EA14FB0478
:100710000C051D0540F0282B392B4A2B5B2BEA18C2
:10072000FB080C091D09B695A79597958795EE0CC2
:10073000FF1C001F111F6F5F7F4F6F31710531F775
:10074000DA01C9018F779070A070B0708034910584
:10075000A105B10561F427FD0AC0E114F10401050A
:10076000110529F0205C3F4F4F4F5F4F20782D87B8
:100770003E874F87588BBE01675F7F4FCB010E943A
:1007800071056896EAE00C949526A8E1B0E0EBECE0
:10079000F3E00C947D2669837A838B839C832D837D
:1007A0003E834F83588789E0E82EF12CEC0EFD1E26
:1007B000CE010196B7010E9446068E010F5E1F4FC3
:1007C000CE010596B8010E9446068985823040F028
:1007D0008989823028F0C701B8010E94BE0601C095
:1007E0008FEF6896E6E00C949926A8E1B0E0EBEF75
:1007F000F3E00C947D2669837A838B839C832D831D
:100800003E834F83588789E0E82EF12CEC0EFD1EC5
:10081000CE010196B7010E9446068E010F5E1F4F62
:10082000CE010596B8010E9446068985823040F0C7
:100830008989823028F0C701B8010E94BE0601C034
:100840008FEF6896E6E00C949926A8E1B0E0EBE221
:10085000F4E00C947D2669837A838B839C832D83BB
:100860003E834F83588789E0E82EF12CEC0EFD1E65
:10087000CE010196B7010E9446068E010F5E1F4F02
:10088000CE010596B8010E9446068985823040F067
:100890008989823028F0C701B8010E94BE0601C0D4
:1008A00081E06896E6E00C949926ACE0B0E0EBE5D8
:1008B000F4E00C94812669837A838B839C83CE0138
:1008C0000196BE016B5F7F4F0E9446068D8182308C
:1008D00061F1823050F1843021F48E81882351F10E
:1008E0002EC02F81388537FD20C06E812F31310514
:1008F0001CF06623F9F023C08EE190E0821B930B7D
:1009000029853A854B855C8504C056954795379572
:1009100027958A95D2F76623B1F05095409530958A
:1009200021953F4F4F4F5F4F0EC020E030E040E039
:1009300050E009C02FEF3FEF4FEF5FE704C020E02A
:1009400030E040E050E8B901CA012C96E2E00C9496
:100950009D26A8E0B0E0EFEAF4E00C9479267B0154
:100960008C01611571058105910519F482E0898377
:1009700060C083E089838EE1C82ED12CDC82CB82DB
:10098000ED82FE820F831887C801B7010E942205FD
:10099000FC013197F7FF3BC0222733272E1B3F0B6B
:1009A00057016801022E04C0D694C794B794A79447
:1009B0000A94D2F740E050E060E070E081E090E01F
:1009C000A0E0B0E004C0880F991FAA1FBB1F2A95A2
:1009D000D2F70197A109B1098E219F21A023B1234C
:1009E0000097A105B10521F041E050E060E070E022
:1009F0004A295B296C297D294D835E836F83788723
:100A00008EE190E08E1B9F0B9C838B8312C03097EE
:100A100081F00E2E04C0EE0CFF1C001F111F0A9463
:100A2000D2F7ED82FE820F831887CE1ADF0ADC82AE
:100A3000CB821A82CE0101960E9471052896EAE0C7
:100A40000C949526EF92FF920F931F937B018C01DC
:100A500080E0E81680E0F80681E0080780E01807EB
:100A600088F48FEFE816F1040105110531F028F044
:100A700088E090E0A0E0B0E017C080E090E0A0E067
:100A8000B0E012C080E0E81680E0F80680E00807D9
:100A900081E0180728F088E190E0A0E0B0E004C011
:100AA00080E190E0A0E0B0E020E230E040E050E003
:100AB000281B390B4A0B5B0B04C016950795F7945E
:100AC000E7948A95D2F7F701E859FF4F8081281BF8
:100AD000310941095109C9011F910F91FF90EF9010
:100AE0000895DF92EF92FF920F931F93FC01E48031
:100AF000F58006811781D1808081823048F480E0C2
:100B000090E0A0E1B0E0E82AF92A0A2B1B2BA5C04F
:100B1000843009F49FC0823021F4EE24FF24870141
:100B200005C0E114F1040105110519F4E0E0F0E05D
:100B300096C0628173819FEF623879070CF05BC0C9
:100B400022E83FEF261B370B2A3131052CF020E03D
:100B500030E040E050E02AC0B801A701022E04C0F6
:100B600076956795579547950A94D2F781E090E07E
:100B7000A0E0B0E004C0880F991FAA1FBB1F2A95F0
:100B8000D2F70197A109B1098E219F21A023B1239A
:100B90000097A105B10521F081E090E0A0E0B0E070
:100BA0009A01AB01282B392B4A2B5B2BDA01C901A7
:100BB0008F779070A070B07080349105A105B10559
:100BC00039F427FF09C0205C3F4F4F4F5F4F04C0EF
:100BD000215C3F4F4F4F5F4FE0E0F0E02030A0E05E
:100BE0003A07A0E04A07A0E45A0710F0E1E0F0E07D
:100BF00079018A0127C06038710564F5FB01E1586D
:100C0000FF4FD801C7018F779070A070B07080340B
:100C10009105A105B10539F4E7FE0DC080E490E02F
:100C2000A0E0B0E004C08FE390E0A0E0B0E0E80E08
:100C3000F91E0A1F1B1F17FF05C016950795F7948D
:100C4000E794319687E016950795F794E7948A958F
:100C5000D1F705C0EE24FF248701EFEFF0E06E2FFF
:100C6000679566276795902F9F77D794DD24D79453
:100C70008E2F8695492F462B582F5D29B701CA0123
:100C80001F910F91FF90EF90DF900895FC01DB0121
:100C9000408151812281622F6F7770E0221F2227CD
:100CA000221F9381892F880F822B282F30E0991FD4
:100CB0009927991F11969C93119721153105A9F534
:100CC000411551056105710511F482E037C082E8D4
:100CD0009FEF13969C938E9312979A01AB0167E056
:100CE000220F331F441F551F6A95D1F783E08C9361
:100CF0000DC0220F331F441F551F12968D919C91DA
:100D00001397019713969C938E931297203080E04F
:100D1000380780E0480780E4580758F314962D936D
:100D20003D934D935C93179708952F3F310579F4C8
:100D3000411551056105710519F484E08C930895FE
:100D400064FF03C081E08C9312C01C9210C02F5727
:100D5000304013963C932E93129783E08C9387E058
:100D6000440F551F661F771F8A95D1F7706414963C
:100D70004D935D936D937C93179708951F93DC01BA
:100D8000FB019C91923008F447C08081823008F4C6
:100D900043C0943051F411961C91843099F58181AF
:100DA000682F70E0611B71093FC0843021F09230E0
:100DB00031F48230B9F18181882389F12DC01196F7
:100DC0001C9111978230F1F081811817D9F4129695
:100DD0002D913C911397828193818217930794F010
:100DE00028173907BCF014968D919D910D90BC91F8
:100DF000A02D2481358146815781281739074A075C
:100E00005B0718F4112341F00AC082179307A40767
:100E1000B50740F4112319F061E070E005C06FEFF1
:100E20007FEF02C060E070E0CB011F910895DF9377
:100E3000CF93CDB7DEB7A1E4B0E0E1E4F0E080818C
:100E400088608C93CF91DF910895DF93CF93CDB7D6
:100E5000DEB7A1E4B0E0E1E4F0E0808188618C934A
:100E6000E1E4F0E01082CF91DF910895DF93CF931A
:100E70000F92CDB7DEB789838981883040F4A1E431
:100E8000B0E0E1E4F0E090818981892B8C930F90B0
:100E9000CF91DF910895DF93CF93CDB7DEB7A895BB
:100EA000CF91DF910895DF93CF93CDB7DEB7AFE455
:100EB000B0E0EFE4F0E080818E7F8C93AFE4B0E0AF
:100EC000EFE4F0E080818D7F8C93AEE4B0E0EEE45F
:100ED000F0E08081877F8C93AEE4B0E0EEE4F0E058
:100EE00080818F7E8C93AEE4B0E0EEE4F0E0808110
:100EF0008E7F8C93AEE4B0E0EEE4F0E080818D7FF5
:100F00008C93AEE4B0E0EEE4F0E0808184608C93FA
:100F1000CF91DF910895DF93CF93CDB7DEB7AEE4E5
:100F2000B0E0EEE4F0E0808180648C93CF91DF91BB
:100F30000895DF93CF93CDB7DEB7A9E5B0E0E9E53B
:100F4000F0E0808180628C93CF91DF910895DF93F0
:100F5000CF93CDB7DEB7A9E5B0E0E9E5F0E0808159
:100F60008F7D8C93CF91DF910895DF93CF9300D045
:100F70000F92CDB7DEB789838981282F30E03B837C
:100F80002A838A819B81009731F02A813B8121301D
:100F9000310549F00FC0AEE4B0E0EEE4F0E080814E
:100FA0008F7B8C9307C0AEE4B0E0EEE4F0E080818C
:100FB00080648C930F900F900F90CF91DF910895E4
:100FC000DF93CF93CDB7DEB7E6E4F0E08081918187
:100FD000CF91DF910895DF93CF9300D0CDB7DEB7E7
:100FE0009A83898389819A81009731F089819A81D6
:100FF00090938D0180938C010F900F90CF91DF9192
:1010000008951F920F920FB60F9211242F933F93C2
:101010004F935F936F937F938F939F93AF93BF9300
:10102000EF93FF93DF93CF93CDB7DEB780918C0121
:1010300090918D01009729F0E0918C01F0918D0144
:101040000995CF91DF91FF91EF91BF91AF919F9162
:101050008F917F916F915F914F913F912F910F9061
:101060000FBE0F901F901895DF93CF93CDB7DEB7CB
:10107000A3E5B0E0E3E5F0E0808180648C93A3E534
:10108000B0E0E3E5F0E0808188608C93A3E5B0E018
:10109000E3E5F0E080818F7C8C93A3E5B0E0E3E5AD
:1010A000F0E0808180628C93CF91DF910895DF938F
:1010B000CF93CDB7DEB7A3E5B0E0E3E5F0E0808104
:1010C000887F8C93A3E5B0E0E3E5F0E08081846065
:1010D0008C93CF91DF910895DF93CF93CDB7DEB797
:1010E000A3E5B0E0E3E5F0E08081887F8C93CF91C9
:1010F000DF910895DF93CF93CDB7DEB7A5970FB6F5
:10110000F894DEBF0FBECDBF6D8F7E8F8F8F98A3FB
:10111000CE0109969AA389A3E8E6F1E0FCA3EBA32C
:10112000F4E1FDA3EBA1FCA100808BA19CA10196A1
:101130009CA38BA3E9A1FAA1008289A19AA101969F
:101140009AA389A39DA191509DA3EDA1EE2351F7F0
:101150008D899E89AF89B88DBC01CD010E94A904FB
:10116000DC01CB01BC01CD0120E030E040E851E4DE
:101170000E941903DC01CB018D839E83AF83B88766
:101180008D8D9E8DAF8DB8A128EE33E040E050E00C
:10119000BC01CD010E94E225DC01CB01BC01CD01E7
:1011A0000E94A904DC01CB01BC01CD012D813E814F
:1011B0004F8158850E941903DC01CB01BC01CD0190
:1011C0000E944900DC01CB0189839A83AB83BC83F5
:1011D000A5960FB6F894DEBF0FBECDBFCF91DF91BD
:1011E0000895DF93CF93CDB7DEB728970FB6F89465
:1011F000DEBF0FBECDBF69837A838B839C838981D9
:101200009A81AB81BC818D839E83AF83B8878D81AA
:101210009E81AF81B8850097A105B10551F08D8100
:101220009E81AF81B88581309105A105B10549F056
:101230000FC0A9E5B0E0E9E5F0E0808181608C9322
:1012400007C0A9E5B0E0E9E5F0E0808182608C9319
:1012500089819A81AB81BC8182309105A105B1055C
:1012600090F4A9E5B0E0E9E5F0E08081482F29811C
:101270003A8181E090E0022E02C0880F991F0A9403
:10128000E2F7842B8C9328960FB6F894DEBF0FBE3E
:10129000CDBFCF91DF910895DF93CF9300D000D0E1
:1012A000CDB7DEB769837A838B839C83A9E5B0E0F1
:1012B000E9E5F0E08081482F29813A8181E090E0E2
:1012C000022E02C0880F991F0A94E2F780958423AA
:1012D0008C930F900F900F900F90CF91DF91089506
:1012E000DF93CF9300D000D00F92CDB7DEB79A83B3
:1012F00089836B838B81282F30E03D832C838C8105
:101300009D81009731F02C813D812130310541F0E4
:101310000DC089819A81909397018093960106C0B0
:1013200089819A8190939901809398018B81882F6C
:1013300090E0880F991FFC01EA56FE4F89819A813F
:10134000918380830F900F900F900F900F90CF910B
:10135000DF910895DF93CF9300D000D00F92CDB7E7
:10136000DEB789838CE590E09D838C838981882F0B
:1013700090E0982F882724E630E0B9010E940D26DE
:10138000CB0101979B838A83EA81FB81FF233CF495
:101390008A819B81909581959F4F9B838A838A81C7
:1013A000EC81FD8180830F900F900F900F900F9034
:1013B000CF91DF910895DF93CF930F92CDB7DEB732
:1013C00089830F90CF91DF9108951F920F920FB6EE
:1013D0000F9211242F933F934F935F936F937F93BB
:1013E0008F939F93AF93BF93EF93FF93DF93CF932D
:1013F000CDB7DEB780919A0190919B01A0919C019D
:10140000B0919D010196A11DB11D80939A01909309
:101410009B01A0939C01B0939D0120919A01309172
:101420009B0140919C0150919D0180918E01909172
:101430008F01A0919001B0919101281739074A07B7
:101440005B07F9F4E2E5F0E080919201909193015D
:10145000A0919401B09195018195808310929A0199
:1014600010929B0110929C0110929D018091960117
:1014700090919701009729F0E0919601F0919701E2
:101480000995CF91DF91FF91EF91BF91AF919F911E
:101490008F917F916F915F914F913F912F910F901D
:1014A0000FBE0F901F9018951F920F920FB60F92BC
:1014B00011242F933F934F935F936F937F938F9359
:1014C0009F93AF93BF93EF93FF93DF93CF93CDB7EA
:1014D000DEB78091980190919901009729F0E091F1
:1014E0009801F09199010995CF91DF91FF91EF91CA
:1014F000BF91AF919F918F917F916F915F914F912C
:101500003F912F910F900FBE0F901F901895DF9372
:10151000CF93CDB7DEB781E065E041E00E949A0C41
:1015200081E067E041E00E949A0C81E064E041E0E4
:101530000E949A0CADE2B0E0EDE2F0E080818061C3
:101540008C93ADE2B0E0EDE2F0E0808181608C93BD
:10155000ADE2B0E0EDE2F0E0808180648C93CF9169
:10156000DF910895DF93CF930F92CDB7DEB78983D4
:10157000EFE2F0E089818083EEE2F0E08081882371
:10158000DCF70F90CF91DF910895DF93CF93CDB724
:10159000DEB781E066E041E00E949A0CADE2B0E087
:1015A000EDE2F0E0808180648C93CF91DF9108952B
:1015B000DF93CF93CDB7DEB7EEE2F0E080818823F2
:1015C000DCF7EFE2F0E08081CF91DF910895DF93C7
:1015D000CF93CDB7DEB7AFE5B0E0EFE5F0E08081C7
:1015E00080688C937894CF91DF910895DF93CF93A7
:1015F000CDB7DEB7F894CF91DF910895DF93CF9305
:1016000000D000D0CDB7DEB789836A838981282FC7
:1016100030E03C832B838B819C818630910559F08F
:101620002B813C8127303105B1F08B819C81853045
:10163000910541F138C0A5E5B0E0E5E5F0E0808135
:101640008C7F8C93A5E5B0E0E5E5F0E090818A81A0
:10165000892B8C9328C0A5E5B0E0E5E5F0E080811A
:10166000837F8C93A5E5B0E0E5E5F0E08081282F4D
:101670008A81882F90E0880F991F880F991F822BED
:101680008C9311C0A4E5B0E0E4E5F0E080818F7BAD
:101690008C93A5E5B0E0E5E5F0E08081982F8A81A4
:1016A0008074892B8C9389818530B0F08981883052
:1016B00098F4ABE5B0E0EBE5F0E08081482F89815C
:1016C000282F30E081E090E0022E02C0880F991FA1
:1016D0000A94E2F7842B8C930F900F900F900F9049
:1016E000CF91DF910895DF93CF9300D00F92CDB7C4
:1016F000DEB789838981282F30E03B832A838A8162
:101700009B818630910559F02A813B812730310534
:1017100071F08A819B818530910589F017C0ABE516
:10172000B0E0EBE5F0E080818F7B8C930FC0ABE500
:10173000B0E0EBE5F0E080818F778C9307C0ABE5FC
:10174000B0E0EBE5F0E080818F7D8C93898185307E
:10175000B8F089818830A0F4ABE5B0E0EBE5F0E0CB
:101760008081482F8981282F30E081E090E0022E8F
:1017700002C0880F991F0A94E2F7809584238C9306
:101780000F900F900F90CF91DF910895DF93CF933B
:1017900000D000D00F92CDB7DEB79A8389836B83D8
:1017A0008B81282F30E03D832C838C819D81863076
:1017B000910559F02C813D812730310569F08C81EC
:1017C0009D818530910579F014C089819A8190932B
:1017D0009F0180939E010DC089819A819093A10100
:1017E0008093A00106C089819A819093A301809380
:1017F000A2010F900F900F900F900F90CF91DF915B
:1018000008951F920F920FB60F9211242F933F93BA
:101810004F935F936F937F938F939F93AF93BF93F8
:10182000EF93FF93DF93CF93CDB7DEB780919E0107
:1018300090919F01009729F0E0919E01F0919F0106
:101840000995CF91DF91FF91EF91BF91AF919F915A
:101850008F917F916F915F914F913F912F910F9059
:101860000FBE0F901F9018951F920F920FB60F92F8
:1018700011242F933F934F935F936F937F938F9395
:101880009F93AF93BF93EF93FF93DF93CF93CDB726
:10189000DEB78091A0019091A101009729F0E0911D
:1018A000A001F091A1010995CF91DF91FF91EF91F6
:1018B000BF91AF919F918F917F916F915F914F9168
:1018C0003F912F910F900FBE0F901F9018951F9270
:1018D0000F920FB60F9211242F933F934F935F9364
:1018E0006F937F938F939F93AF93BF93EF93FF93E8
:1018F000DF93CF93CDB7DEB78091A2019091A30182
:10190000009729F0E091A201F091A3010995CF91F0
:10191000DF91FF91EF91BF91AF919F918F917F9157
:101920006F915F914F913F912F910F900FBE0F904C
:101930001F901895DF93CF93CDB7DEB72D970FB6D5
:10194000F894DEBF0FBECDBF89836A834B83898144
:10195000282F30E03D872C878C859D85813091052F
:1019600009F44FC02C853D85223031052CF48C853F
:101970009D85009771F0ECC02C853D8522303105A6
:1019800009F477C08C859D858330910509F4A9C041
:10199000DFC08B81282F30E03B872A878A859B8593
:1019A000009731F02A853B8521303105B1F0D0C058
:1019B000AAE3B0E0EAE3F0E08081482F8A81282F93
:1019C00030E081E090E0022E02C0880F991F0A9457
:1019D000E2F7809584238C93BBC0AAE3B0E0EAE3EE
:1019E000F0E08081482F8A81282F30E081E090E06C
:1019F000022E02C0880F991F0A94E2F7842B8C9361
:101A0000A7C08B81282F30E0398728878885998562
:101A1000009731F02885398521303105B1F098C023
:101A2000A7E3B0E0E7E3F0E08081482F8A81282F28
:101A300030E081E090E0022E02C0880F991F0A94E6
:101A4000E2F7809584238C9383C0A7E3B0E0E7E3BB
:101A5000F0E08081482F8A81282F30E081E090E0FB
:101A6000022E02C0880F991F0A94E2F7842B8C93F0
:101A70006FC08B81282F30E03F832E838E819F8122
:101A8000009731F02E813F8121303105B1F060C0E7
:101A9000A4E3B0E0E4E3F0E08081482F8A81282FBE
:101AA00030E081E090E0022E02C0880F991F0A9476
:101AB000E2F7809584238C934BC0A4E3B0E0E4E389
:101AC000F0E08081482F8A81282F30E081E090E08B
:101AD000022E02C0880F991F0A94E2F7842B8C9380
:101AE00037C08B81282F30E03D832C838C819D81F2
:101AF000009731F02C813D8121303105B1F028C0B3
:101B0000A1E3B0E0E1E3F0E08081482F8A81282F53
:101B100030E081E090E0022E02C0880F991F0A9405
:101B2000E2F7809584238C9313C0A1E3B0E0E1E356
:101B3000F0E08081482F8A81282F30E081E090E01A
:101B4000022E02C0880F991F0A94E2F7842B8C930F
:101B50002D960FB6F894DEBF0FBECDBFCF91DF91AB
:101B60000895DF93CF93CDB7DEB72D970FB6F894D6
:101B7000DEBF0FBECDBF89836A834B838981282F47
:101B800030E03D872C878C859D858130910509F457
:101B90004FC02C853D85223031052CF48C859D85E8
:101BA000009771F0ECC02C853D852230310509F499
:101BB00077C08C859D858330910509F4A9C0DFC06D
:101BC0008B81282F30E03B872A878A859B85009769
:101BD00031F02A853B8521303105B1F0D0C0ABE32F
:101BE000B0E0EBE3F0E08081482F8A81282F30E0DD
:101BF00081E090E0022E02C0880F991F0A94E2F75C
:101C0000809584238C93BBC0ABE3B0E0EBE3F0E0C2
:101C10008081482F8A81282F30E081E090E0022ED9
:101C200002C0880F991F0A94E2F7842B8C93A7C0F7
:101C30008B81282F30E03987288788859985009700
:101C400031F02885398521303105B1F098C0A8E3FD
:101C5000B0E0E8E3F0E08081482F8A81282F30E06F
:101C600081E090E0022E02C0880F991F0A94E2F7EB
:101C7000809584238C9383C0A8E3B0E0E8E3F0E090
:101C80008081482F8A81282F30E081E090E0022E69
:101C900002C0880F991F0A94E2F7842B8C936FC0BF
:101CA0008B81282F30E03F832E838E819F81009788
:101CB00031F02E813F8121303105B1F060C0A5E3C4
:101CC000B0E0E5E3F0E08081482F8A81282F30E002
:101CD00081E090E0022E02C0880F991F0A94E2F77B
:101CE000809584238C934BC0A5E3B0E0E5E3F0E05E
:101CF0008081482F8A81282F30E081E090E0022EF9
:101D000002C0880F991F0A94E2F7842B8C9337C086
:101D10008B81282F30E03D832C838C819D8100971F
:101D200031F02C813D8121303105B1F028C0A2E392
:101D3000B0E0E2E3F0E08081482F8A81282F30E094
:101D400081E090E0022E02C0880F991F0A94E2F70A
:101D5000809584238C9313C0A2E3B0E0E2E3F0E02B
:101D60008081482F8A81282F30E081E090E0022E88
:101D700002C0880F991F0A94E2F7842B8C932D964A
:101D80000FB6F894DEBF0FBECDBFCF91DF9108959F
:101D9000DF93CF9300D000D000D0CDB7DEB78983DA
:101DA0006A835C834B838981282F30E03E832D83B7
:101DB0004D815E814130510559F18D819E81823086
:101DC000910534F42D813E812115310569F05BC008
:101DD0004D815E814230510579F18D819E81833044
:101DE000910509F43DC04FC0E9E3F0E08081282F60
:101DF00030E08A81882F90E0A90102C0559547956F
:101E00008A95E2F7CA018170EB81FC8180833BC037
:101E1000E6E3F0E08081282F30E08A81882F90E08F
:101E2000A90102C0559547958A95E2F7CA018170CC
:101E3000EB81FC81808327C0E3E3F0E08081282FE1
:101E400030E08A81882F90E0A90102C0559547951E
:101E50008A95E2F7CA018170EB81FC81808313C00F
:101E6000E0E3F0E08081282F30E08A81882F90E045
:101E7000A90102C0559547958A95E2F7CA0181707C
:101E8000EB81FC81808326960FB6F894DEBF0FBEEF
:101E9000CDBFCF91DF910895DF93CF9300D000D0D5
:101EA000CDB7DEB789836A838981282F30E03C83F0
:101EB0002B838B819C818130910549F12B813C8161
:101EC000223031052CF48B819C81009761F05AC03F
:101ED0002B813C812230310571F18B819C818330D3
:101EE0009105E9F14FC0ABE3B0E0EBE3F0E08081B6
:101EF000482F8A81282F30E081E090E0022E02C036
:101F0000880F991F0A94E2F784278C933BC0A8E3BB
:101F1000B0E0E8E3F0E08081482F8A81282F30E0AC
:101F200081E090E0022E02C0880F991F0A94E2F728
:101F300084278C9327C0A5E3B0E0E5E3F0E080813F
:101F4000482F8A81282F30E081E090E0022E02C0E5
:101F5000880F991F0A94E2F784278C9313C0A2E399
:101F6000B0E0E2E3F0E08081482F8A81282F30E062
:101F700081E090E0022E02C0880F991F0A94E2F7D8
:101F800084278C930F900F900F900F90CF91DF913B
:101F90000895DF93CF93CDB7DEB780E061E041E0F5
:101FA0000E949A0C80E062E041E00E949A0C80E07E
:101FB00063E041E00E949A0C80E064E041E00E940E
:101FC0009A0C80E065E041E00E949A0C80E066E0B7
:101FD00041E00E949A0C80E067E041E00E949A0C88
:101FE00081E060E041E00E949A0C82E066E041E01E
:101FF0000E949A0C82E067E041E00E949A0CCF9127
:10200000DF910895DF93CF93CDB7DEB7A7970FB6D3
:10201000F894DEBF0FBECDBF8BA38BA1843608F032
:1020200004C58BA19AE0692F0E940126892F8E8F0B
:102030008BA19AE0692F0E9401268D8F1F8E18A216
:1020400019A21AA2E8C48E8D282F30E03FA32EA338
:102050008EA19FA18430910509F4F0C02EA13FA16B
:1020600025303105ECF48EA19FA18130910509F452
:102070006AC02EA13FA1223031052CF48EA19FA170
:10208000009799F1D0C12EA13FA12230310509F46A
:1020900083C08EA19FA18330910509F4A6C0C3C15E
:1020A0002EA13FA12730310509F443C18EA19FA184
:1020B000883091056CF42EA13FA12530310509F43B
:1020C000E6C08EA19FA18630910509F409C1ABC17C
:1020D0002EA13FA12830310509F454C18EA19FA142
:1020E0008930910509F477C19EC180E061E041E04B
:1020F0000E94B10D80E062E041E00E94B10D80E0FD
:1021000063E041E00E94B10D80E064E041E00E94A4
:10211000B10D80E065E041E00E94B10D80E066E035
:1021200041E00E94B10D80E061E041E00E94B10D0C
:1021300080E067E040E00E94B10D81E060E040E0B7
:102140000E94B10D70C180E061E040E00E94B10DDD
:1021500080E062E041E00E94B10D80E063E041E098
:102160000E94B10D80E064E040E00E94B10D80E08B
:1021700065E040E00E94B10D80E066E040E00E9432
:10218000B10D80E067E040E00E94B10D81E060E0C9
:1021900040E00E94B10D47C180E061E041E00E9453
:1021A000B10D80E062E041E00E94B10D80E063E0AB
:1021B00040E00E94B10D80E064E041E00E94B10D7A
:1021C00080E065E041E00E94B10D80E066E040E023
:1021D0000E94B10D80E067E041E00E94B10D81E016
:1021E00060E040E00E94B10D1EC180E061E041E08E
:1021F0000E94B10D80E062E041E00E94B10D80E0FC
:1022000063E041E00E94B10D80E064E041E00E94A3
:10221000B10D80E065E040E00E94B10D80E066E035
:1022200040E00E94B10D80E067E041E00E94B10D06
:1022300081E060E040E00E94B10DF5C080E061E027
:1022400040E00E94B10D80E062E041E00E94B10DEB
:1022500080E063E041E00E94B10D80E064E040E096
:102260000E94B10D80E065E040E00E94B10D80E089
:1022700066E041E00E94B10D80E067E041E00E942D
:10228000B10D81E060E040E00E94B10DCCC080E083
:1022900061E041E00E94B10D80E062E040E00E9418
:1022A000B10D80E063E041E00E94B10D80E064E0A8
:1022B00041E00E94B10D80E065E040E00E94B10D78
:1022C00080E066E041E00E94B10D80E067E041E01F
:1022D0000E94B10D81E060E040E00E94B10DA3C01A
:1022E00080E061E041E00E94B10D80E062E040E00A
:1022F0000E94B10D80E063E041E00E94B10D80E0FA
:1023000064E041E00E94B10D80E065E041E00E94A0
:10231000B10D80E066E041E00E94B10D80E067E031
:1023200041E00E94B10D81E060E040E00E94B10D0B
:102330007AC080E061E041E00E94B10D80E062E09F
:1023400041E00E94B10D80E063E041E00E94B10DE8
:1023500080E064E040E00E94B10D80E065E040E094
:102360000E94B10D80E066E040E00E94B10D80E087
:1023700067E040E00E94B10D81E060E040E00E9433
:10238000B10D51C080E061E041E00E94B10D80E0FC
:1023900062E041E00E94B10D80E063E041E00E9414
:1023A000B10D80E064E041E00E94B10D80E065E0A5
:1023B00041E00E94B10D80E066E041E00E94B10D75
:1023C00080E067E041E00E94B10D81E060E040E024
:1023D0000E94B10D28C080E061E041E00E94B10D93
:1023E00080E062E041E00E94B10D80E063E041E006
:1023F0000E94B10D80E064E041E00E94B10D80E0F8
:1024000065E040E00E94B10D80E066E041E00E949E
:10241000B10D80E067E041E00E94B10D81E060E035
:1024200040E00E94B10D82E066E041E00E94B10D03
:1024300082E067E040E00E94B10D80E090E0A0E81B
:10244000BFE3898F9A8FAB8FBC8F698D7A8D8B8D0F
:102450009C8D20E030E04AE755E40E941F02DC0139
:10246000CB018D8B9E8BAF8BB88F6D897E898F89C9
:10247000988D20E030E040E85FE30E942504882347
:102480002CF481E090E09C8B8B8B3FC06D897E8922
:102490008F89988D20E03FEF4FE757E40E94C503F6
:1024A00018164CF5698D7A8D8B8D9C8D20E030E06F
:1024B00040E251E40E941F02DC01CB01BC01CD01CE
:1024C0000E944900DC01CB019C8B8B8B0FC080E903
:1024D00091E09A8B898B89899A890197F1F79A8B78
:1024E000898B8B899C8901979C8B8B8B8B899C8991
:1024F000009769F714C06D897E898F89988D0E9435
:102500004900DC01CB019C8B8B8B8B899C89988B40
:102510008F878F8598890197F1F7988B8F8782E055
:1025200066E040E00E94B10D8D8D282F30E03DA384
:102530002CA38CA19DA18430910509F4F0C02CA19D
:102540003DA125303105ECF48CA19DA18130910590
:1025500009F46AC02CA13DA1223031052CF48CA1D4
:102560009DA1009799F1D0C12CA13DA12230310548
:1025700009F483C08CA19DA18330910509F4A6C004
:10258000C3C12CA13DA12730310509F443C18CA161
:102590009DA1883091056CF42CA13DA12530310519
:1025A00009F4E6C08CA19DA18630910509F409C10A
:1025B000ABC12CA13DA12830310509F454C18CA137
:1025C0009DA18930910509F477C19EC180E061E049
:1025D00041E00E94B10D80E062E041E00E94B10D57
:1025E00080E063E041E00E94B10D80E064E041E002
:1025F0000E94B10D80E065E041E00E94B10D80E0F5
:1026000066E041E00E94B10D80E061E041E00E949F
:10261000B10D80E067E040E00E94B10D81E060E034
:1026200040E00E94B10D70C180E061E040E00E9496
:10263000B10D80E062E041E00E94B10D80E063E016
:1026400041E00E94B10D80E064E040E00E94B10DE5
:1026500080E065E040E00E94B10D80E066E040E08F
:102660000E94B10D80E067E040E00E94B10D81E082
:1026700060E040E00E94B10D47C180E061E041E0D0
:102680000E94B10D80E062E041E00E94B10D80E067
:1026900063E040E00E94B10D80E064E041E00E9410
:1026A000B10D80E065E041E00E94B10D80E066E0A0
:1026B00040E00E94B10D80E067E041E00E94B10D72
:1026C00081E060E040E00E94B10D1EC180E061E069
:1026D00041E00E94B10D80E062E041E00E94B10D56
:1026E00080E063E041E00E94B10D80E064E041E001
:1026F0000E94B10D80E065E040E00E94B10D80E0F5
:1027000066E040E00E94B10D80E067E041E00E9499
:10271000B10D81E060E040E00E94B10DF5C080E0C5
:1027200061E040E00E94B10D80E062E041E00E9483
:10273000B10D80E063E041E00E94B10D80E064E013
:1027400040E00E94B10D80E065E040E00E94B10DE4
:1027500080E066E041E00E94B10D80E067E041E08A
:102760000E94B10D81E060E040E00E94B10DCCC05C
:1027700080E061E041E00E94B10D80E062E040E075
:102780000E94B10D80E063E041E00E94B10D80E065
:1027900064E041E00E94B10D80E065E040E00E940D
:1027A000B10D80E066E041E00E94B10D80E067E09D
:1027B00041E00E94B10D81E060E040E00E94B10D77
:1027C000A3C080E061E041E00E94B10D80E062E0E2
:1027D00040E00E94B10D80E063E041E00E94B10D55
:1027E00080E064E041E00E94B10D80E065E041E0FE
:1027F0000E94B10D80E066E041E00E94B10D80E0F2
:1028000067E041E00E94B10D81E060E040E00E949D
:10281000B10D7AC080E061E041E00E94B10D80E03E
:1028200062E041E00E94B10D80E063E041E00E947F
:10283000B10D80E064E040E00E94B10D80E065E011
:1028400040E00E94B10D80E066E040E00E94B10DE2
:1028500080E067E040E00E94B10D81E060E040E090
:102860000E94B10D51C080E061E041E00E94B10DD5
:1028700080E062E041E00E94B10D80E063E041E071
:102880000E94B10D80E064E041E00E94B10D80E063
:1028900065E041E00E94B10D80E066E041E00E9409
:1028A000B10D80E067E041E00E94B10D81E060E0A1
:1028B00040E00E94B10D28C080E061E041E00E944C
:1028C000B10D80E062E041E00E94B10D80E063E084
:1028D00041E00E94B10D80E064E041E00E94B10D52
:1028E00080E065E040E00E94B10D80E066E041E0FC
:1028F0000E94B10D80E067E041E00E94B10D81E0EF
:1029000060E040E00E94B10D82E067E041E00E949B
:10291000B10D80E090E0A0E8BFE38B879C87AD8796
:10292000BE876B857C858D859E8520E030E04AE7FB
:1029300055E40E941F02DC01CB018F839887A98791
:10294000BA876F81788589859A8520E030E040E8F4
:102950005FE30E94250488232CF481E090E09E83AD
:102960008D833FC06F81788589859A8520E03FEF10
:102970004FE757E40E94C50318164CF56B857C851C
:102980008D859E8520E030E040E251E40E941F02E8
:10299000DC01CB01BC01CD010E944900DC01CB016F
:1029A0009E838D830FC080E991E09C838B838B8114
:1029B0009C810197F1F79C838B838D819E81019788
:1029C0009E838D838D819E81009769F714C06F81EE
:1029D000788589859A850E944900DC01CB019E8318
:1029E0008D838D819E819A83898389819A810197C4
:1029F000F1F79A83898382E067E040E00E94B10D9D
:102A00008F8D98A1A9A1BAA10196A11DB11D8F8F8B
:102A100098A3A9A3BAA38F8D98A1A9A1BAA18A3F0F
:102A20009105A105B10508F40ECBA7960FB6F89451
:102A3000DEBF0FBECDBFCF91DF910895DF93CF935F
:102A400000D0CDB7DEB79A838983E981FA8181818D
:102A5000E981FA819281692F40E00E949A0C0F90DF
:102A60000F90CF91DF910895DF93CF93CDB7DEB76D
:102A7000A1970FB6F894DEBF0FBECDBF9F8F8E8F8C
:102A800079A368A3EE8DFF8D8381882309F0B0C000
:102A9000E8A1F9A181E08083EE8DFF8D8181EE8D2B
:102AA000FF8D928128A139A1692FA9010E94C80E2A
:102AB000E8A1F9A18081882309F04FC180E090E06E
:102AC000A8E4B3E4898F9A8FAB8FBC8F698D7A8D20
:102AD0008B8D9C8D20E030E04AE755E40E941F0278
:102AE000DC01CB018D8B9E8BAF8BB88F6D897E897E
:102AF0008F89988D20E030E040E85FE30E94250454
:102B000088232CF481E090E09C8B8B8B3FC06D89F7
:102B10007E898F89988D20E03FEF4FE757E40E9430
:102B2000C50318164CF5698D7A8D8B8D9C8D20E030
:102B300030E040E251E40E941F02DC01CB01BC0105
:102B4000CD010E944900DC01CB019C8B8B8B0FC017
:102B500080E991E09A8B898B89899A890197F1F7AD
:102B60009A8B898B8B899C8901979C8B8B8B8B890A
:102B70009C89009769F714C06D897E898F89988D2B
:102B80000E944900DC01CB019C8B8B8B8B899C893B
:102B9000988B8F878F8598890197F1F7988B8F870E
:102BA000EE8DFF8D8181EE8DFF8D928128A139A15F
:102BB000692FA9010E94C80EE8A1F9A1808188238C
:102BC00009F0CBC00CC0EE8DFF8D8181EE8DFF8DA5
:102BD000928128A139A1692FA9010E94C80EE8A1FC
:102BE000F9A18081882379F3E8A1F9A11082B5C009
:102BF000EE8DFF8D8381813009F0AFC0EE8DFF8DAA
:102C00008381882309F0A9C081E08D8FEE8DFF8D2F
:102C10008181EE8DFF8D92819E01205E3F4F692F55
:102C2000A9010E94C80E8D8D882309F096C080E00E
:102C300090E0A8E4B3E48B879C87AD87BE876B8563
:102C40007C858D859E8520E030E04AE755E40E9432
:102C50001F02DC01CB018F839887A987BA876F8118
:102C6000788589859A8520E030E040E85FE30E941E
:102C7000250488232CF481E090E09E838D833FC05F
:102C80006F81788589859A8520E03FEF4FE757E48B
:102C90000E94C50318164CF56B857C858D859E8535
:102CA00020E030E040E251E40E941F02DC01CB0151
:102CB000BC01CD010E944900DC01CB019E838D83C4
:102CC0000FC080E991E09C838B838B819C8101976D
:102CD000F1F79C838B838D819E8101979E838D83E9
:102CE0008D819E81009769F714C06F8178858985F1
:102CF0009A850E944900DC01CB019E838D838D81E2
:102D00009E819A83898389819A810197F1F79A83B9
:102D10008983EE8DFF8D8181EE8DFF8D92819E01E5
:102D2000205E3F4F692FA9010E94C80E8D8D882318
:102D3000A1F40DC0EE8DFF8D8181EE8DFF8D92810E
:102D40009E01205E3F4F692FA9010E94C80E8D8D04
:102D5000882381F3E8A1F9A11082A1960FB6F89417
:102D6000DEBF0FBECDBFCF91DF910895DF93CF932C
:102D700000D00F92CDB7DEB789838981282F30E04C
:102D80003B832A838A819B818130910579F02A8156
:102D90003B812230310581F08A819B81009789F443
:102DA00082E060E041E00E949A0C0BC082E062E0A9
:102DB00041E00E949A0C05C082E061E041E00E947F
:102DC0009A0C0F900F900F90CF91DF910895DF93A1
:102DD000CF9300D00F92CDB7DEB789838981282F9A
:102DE00030E03B832A838A819B818130910579F091
:102DF0002A813B812230310581F08A819B810097B5
:102E000089F482E060E041E00E94B10D0BC082E0F5
:102E100062E041E00E94B10D05C082E061E041E066
:102E20000E94B10D0F900F900F90CF91DF910895F8
:102E3000DF93CF9300D00F92CDB7DEB7898389811E
:102E4000282F30E03B832A838A819B818130910542
:102E500079F02A813B812230310581F08A819B8182
:102E6000009789F482E060E040E00E94B10D0BC061
:102E700082E062E040E00E94B10D05C082E061E0C6
:102E800040E00E94B10D0F900F900F90CF91DF9115
:102E90000895DF93CF9300D00F92CDB7DEB789832B
:102EA0008981282F30E03B832A838A819B8181306E
:102EB000910571F02A813B812230310571F08A81C0
:102EC0009B81009771F482E060E00E944C0F09C082
:102ED00082E062E00E944C0F04C082E061E00E9448
:102EE0004C0F0F900F900F90CF91DF9108950F939B
:102EF0001F93DF93CF93CDB7DEB7C455D0400FB645
:102F0000F894DEBF0FBECDBF80E00E94E71682E0DE
:102F10000E94E716FE01EF5AFF4F80E090E0AAEF13
:102F2000B3E480839183A283B3838E01035B1F4F3D
:102F3000FE01EF5AFF4F608171818281938120E011
:102F400030E04AE755E40E941F02DC01CB01F801A2
:102F500080839183A283B383FE01E35BFF4F608193
:102F600071818281938120E030E040E85FE30E943C
:102F70002504882344F4FE01E55BFF4F81E090E0E7
:102F80009183808364C0FE01E35BFF4F60817181A8
:102F90008281938120E03FEF4FE757E40E94C50311
:102FA00018160CF043C0FE01EF5AFF4F608171818B
:102FB0008281938120E030E040E251E40E941F02D0
:102FC000DC01CB018E01055B1F4FBC01CD010E94CE
:102FD0004900DC01CB01F801918380831FC0FE0111
:102FE000E75BFF4F80E991E091838083FE01E75B1F
:102FF000FF4F808191810197F1F7FE01E75BFF4F61
:1030000091838083DE01A55BBF4FFE01E55BFF4F2F
:1030100080819181019711969C938E93FE01E55BCF
:10302000FF4F808191810097D1F627C08E01055B0B
:103030001F4FFE01E35BFF4F6081718182819381AD
:103040000E944900DC01CB01F80191838083DE01FD
:10305000A95BBF4FFE01E55BFF4F808191818D939E
:103060009C93FE01E95BFF4F808191810197F1F70D
:10307000FE01E95BFF4F9183808380E00E94181777
:1030800082E00E941817FE01ED5BFF4F80E090E0A8
:10309000AAEFB3E480839183A283B3838E01015CA2
:1030A0001F4FFE01ED5BFF4F608171818281938133
:1030B00020E030E04AE755E40E941F02DC01CB012A
:1030C000F80180839183A283B383FE01FF96608120
:1030D00071818281938120E030E040E85FE30E94CB
:1030E000250488232CF481E090E09EAF8DAF46C08C
:1030F000FE01FF96608171818281938120E03FEF24
:103100004FE757E40E94C503181664F5FE01ED5B16
:10311000FF4F608171818281938120E030E040E245
:1031200051E40E941F02DC01CB01BC01CD010E94D1
:103130004900DC01CB019EAF8DAF0FC080E991E06B
:103140009CAF8BAF8BAD9CAD0197F1F79CAF8BAF74
:103150008DAD9EAD01979EAF8DAF8DAD9EAD0097AD
:1031600069F716C0FE01FF966081718182819381AB
:103170000E944900DC01CB019EAF8DAF8DAD9EADAD
:103180009AAF89AF89AD9AAD0197F1F79AAF89AF40
:1031900082E00E94E71681E00E94E71680E090E05E
:1031A000AAEFB3E48DAB9EABAFABB8AF6DA97EA970
:1031B0008FA998AD20E030E04AE755E40E941F0255
:1031C000DC01CB0189AB9AABABABBCAB69A97AA9EB
:1031D0008BA99CA920E030E040E85FE30E94250431
:1031E00088232CF481E090E098AB8FA73FC069A9B9
:1031F0007AA98BA99CA920E03FEF4FE757E40E94F2
:10320000C50318164CF56DA97EA98FA998AD20E0CD
:1032100030E040E251E40E941F02DC01CB01BC011E
:10322000CD010E944900DC01CB0198AB8FA70FC0F4
:1032300080E991E09EA78DA78DA59EA50197F1F746
:103240009EA78DA78FA598A9019798AB8FA78FA54B
:1032500098A9009769F714C069A97AA98BA99CA9B4
:103260000E944900DC01CB0198AB8FA78FA598A9DC
:103270009CA78BA78BA59CA50197F1F79CA78BA773
:1032800082E00E94181781E00E94181780E090E009
:10329000AAEFB3E48FA398A7A9A7BAA76FA178A5AF
:1032A00089A59AA520E030E04AE755E40E941F0274
:1032B000DC01CB018BA39CA3ADA3BEA36BA17CA11E
:1032C0008DA19EA120E030E040E85FE30E9425044C
:1032D00088232CF481E090E09AA389A33FC06BA1DE
:1032E0007CA18DA19EA120E03FEF4FE757E40E9413
:1032F000C50318164CF56FA178A589A59AA520E0FD
:1033000030E040E251E40E941F02DC01CB01BC012D
:10331000CD010E944900DC01CB019AA389A30FC013
:1033200080E991E098A38F8F8F8D98A10197F1F795
:1033300098A38F8F89A19AA101979AA389A389A1A4
:103340009AA1009769F714C06BA17CA18DA19EA1E1
:103350000E944900DC01CB019AA389A389A19AA10B
:103360009E8F8D8F8D8D9E8D0197F1F79E8F8D8F06
:1033700080E00E94E71681E00E94E71680E090E07E
:10338000AAEFB3E4898F9A8FAB8FBC8F698D7A8D4A
:103390008B8D9C8D20E030E04AE755E40E941F02AF
:1033A000DC01CB018D8B9E8BAF8BB88F6D897E89B5
:1033B0008F89988D20E030E040E85FE30E9425048B
:1033C00088232CF481E090E09C8B8B8B3FC06D892F
:1033D0007E898F89988D20E03FEF4FE757E40E9468
:1033E000C50318164CF5698D7A8D8B8D9C8D20E068
:1033F00030E040E251E40E941F02DC01CB01BC013D
:10340000CD010E944900DC01CB019C8B8B8B0FC04E
:1034100080E991E09A8B898B89899A890197F1F7E4
:103420009A8B898B8B899C8901979C8B8B8B8B8941
:103430009C89009769F714C06D897E898F89988D62
:103440000E944900DC01CB019C8B8B8B8B899C8972
:10345000988B8F878F8598890197F1F7988B8F8745
:1034600080E00E94181781E00E94181780E090E029
:10347000AAEFB3E48B879C87AD87BE876B857C857D
:103480008D859E8520E030E04AE755E40E941F02CA
:10349000DC01CB018F839887A987BA876F817885F4
:1034A00089859A8520E030E040E85FE30E942504AA
:1034B00088232CF481E090E09E838D833FC06F8150
:1034C000788589859A8520E03FEF4FE757E40E9491
:1034D000C50318164CF56B857C858D859E8520E08F
:1034E00030E040E251E40E941F02DC01CB01BC014C
:1034F000CD010E944900DC01CB019E838D830FC06A
:1035000080E991E09C838B838B819C810197F1F70B
:103510009C838B838D819E8101979E838D838D817A
:103520009E81009769F714C06F81788589859A8597
:103530000E944900DC01CB019E838D838D819E8199
:103540009A83898389819A810197F1F79A83898384
:10355000CC5ADF4F0FB6F894DEBF0FBECDBFCF9170
:10356000DF911F910F9108950F931F93DF93CF93D6
:10357000CDB7DEB7C455D0400FB6F894DEBF0FBE4E
:10358000CDBF80E00E94E716FE01EF5AFF4F80E0BA
:1035900090E0AAEFB3E480839183A283B3838E018A
:1035A000035B1F4FFE01EF5AFF4F608171818281E3
:1035B000938120E030E04AE755E40E941F02DC01DD
:1035C000CB01F80180839183A283B383FE01E35B87
:1035D000FF4F608171818281938120E030E040E87B
:1035E0005FE30E942504882344F4FE01E55BFF4F5E
:1035F00081E090E09183808364C0FE01E35BFF4F34
:10360000608171818281938120E03FEF4FE757E431
:103610000E94C50318160CF043C0FE01EF5AFF4F7D
:10362000608171818281938120E030E040E251E449
:103630000E941F02DC01CB018E01055B1F4FBC0104
:10364000CD010E944900DC01CB01F8019183808308
:103650001FC0FE01E75BFF4F80E991E0918380830B
:10366000FE01E75BFF4F808191810197F1F7FE0139
:10367000E75BFF4F91838083DE01A55BBF4FFE01B7
:10368000E55BFF4F80819181019711969C938E930A
:10369000FE01E55BFF4F808191810097D1F627C045
:1036A0008E01055B1F4FFE01E35BFF4F608171815F
:1036B000828193810E944900DC01CB01F801918352
:1036C0008083DE01A95BBF4FFE01E55BFF4F808178
:1036D00091818D939C93FE01E95BFF4F80819181E5
:1036E0000197F1F7FE01E95BFF4F9183808380E052
:1036F0000E941817FE01ED5BFF4F80E090E0AAEFFB
:10370000B3E480839183A283B3838E01015C1F4F56
:10371000FE01ED5BFF4F608171818281938120E02A
:1037200030E04AE755E40E941F02DC01CB01F801BA
:1037300080839183A283B383FE01FF9660817181B0
:103740008281938120E030E040E85FE30E9425041D
:1037500088232CF481E090E09EAF8DAF46C0FE013F
:10376000FF96608171818281938120E03FEF4FE776
:1037700057E40E94C503181664F5FE01ED5BFF4F88
:10378000608171818281938120E030E040E251E4E8
:103790000E941F02DC01CB01BC01CD010E94490047
:1037A000DC01CB019EAF8DAF0FC080E991E09CAFF3
:1037B0008BAF8BAD9CAD0197F1F79CAF8BAF8DAD0F
:1037C0009EAD01979EAF8DAF8DAD9EAD009769F711
:1037D00016C0FE01FF9660817181828193810E94F3
:1037E0004900DC01CB019EAF8DAF8DAD9EAD9AAF90
:1037F00089AF89AD9AAD0197F1F79AAF89AF82E0B1
:103800000E94E71680E090E0AAEFB3E48DAB9EAB98
:10381000AFABB8AF6DA97EA98FA998AD20E030E01D
:103820004AE755E40E941F02DC01CB0189AB9AAB49
:10383000ABABBCAB69A97AA98BA99CA920E030E00D
:1038400040E85FE30E94250488232CF481E090E0A7
:1038500098AB8FA73FC069A97AA98BA99CA920E042
:103860003FEF4FE757E40E94C50318164CF56DA9CA
:103870007EA98FA998AD20E030E040E251E40E949B
:103880001F02DC01CB01BC01CD010E944900DC011B
:10389000CB0198AB8FA70FC080E991E09EA78DA7C1
:1038A0008DA59EA50197F1F79EA78DA78FA598A935
:1038B000019798AB8FA78FA598A9009769F714C0B7
:1038C00069A97AA98BA99CA90E944900DC01CB01B6
:1038D00098AB8FA78FA598A99CA78BA78BA59CA514
:1038E0000197F1F79CA78BA782E00E94181780E050
:1038F00090E0AAEFB3E48FA398A7A9A7BAA76FA1F6
:1039000078A589A59AA520E030E04AE755E40E9411
:103910001F02DC01CB018BA39CA3ADA3BEA36BA1B3
:103920007CA18DA19EA120E030E040E85FE30E94F1
:10393000250488232CF481E090E09AA389A33FC05A
:103940006BA17CA18DA19EA120E03FEF4FE757E442
:103950000E94C50318164CF56FA178A589A59AA5F4
:1039600020E030E040E251E40E941F02DC01CB0184
:10397000BC01CD010E944900DC01CB019AA389A3BF
:103980000FC080E991E098A38F8F8F8D98A1019748
:10399000F1F798A38F8F89A19AA101979AA389A380
:1039A00089A19AA1009769F714C06BA17CA18DA190
:1039B0009EA10E944900DC01CB019AA389A389A1A1
:1039C0009AA19E8F8D8F8D8D9E8D0197F1F79E8F81
:1039D0008D8F81E00E94E71680E090E0AAEFB3E4CB
:1039E000898F9A8FAB8FBC8F698D7A8D8B8D9C8DD3
:1039F00020E030E04AE755E40E941F02DC01CB01E1
:103A00008D8B9E8BAF8BB88F6D897E898F89988DBA
:103A100020E030E040E85FE30E94250488232CF496
:103A200081E090E09C8B8B8B3FC06D897E898F8974
:103A3000988D20E03FEF4FE757E40E94C50318162A
:103A40004CF5698D7A8D8B8D9C8D20E030E040E2C5
:103A500051E40E941F02DC01CB01BC01CD010E9498
:103A60004900DC01CB019C8B8B8B0FC080E991E07E
:103A70009A8B898B89899A890197F1F79A8B898B1F
:103A80008B899C8901979C8B8B8B8B899C89009758
:103A900069F714C06D897E898F89988D0E944900CD
:103AA000DC01CB019C8B8B8B8B899C89988B8F87BE
:103AB0008F8598890197F1F7988B8F8781E00E9415
:103AC000181780E090E0AAEFB3E48B879C87AD875E
:103AD000BE876B857C858D859E8520E030E04AE73A
:103AE00055E40E941F02DC01CB018F839887A987D0
:103AF000BA876F81788589859A8520E030E040E833
:103B00005FE30E94250488232CF481E090E09E83EB
:103B10008D833FC06F81788589859A8520E03FEF4E
:103B20004FE757E40E94C50318164CF56B857C855A
:103B30008D859E8520E030E040E251E40E941F0226
:103B4000DC01CB01BC01CD010E944900DC01CB01AD
:103B50009E838D830FC080E991E09C838B838B8152
:103B60009C810197F1F79C838B838D819E810197C6
:103B70009E838D838D819E81009769F714C06F812C
:103B8000788589859A850E944900DC01CB019E8356
:103B90008D838D819E819A83898389819A81019702
:103BA000F1F79A838983CC5ADF4F0FB6F894DEBFC2
:103BB0000FBECDBFCF91DF911F910F910895DF937D
:103BC000CF93CDB7DEB76C970FB6F894DEBF0FBEBC
:103BD000CDBF80E00E94E71682E00E94E71681E0F8
:103BE0000E94E71680E090E0AAEFB3E4898F9A8FF5
:103BF000AB8FBC8F698D7A8D8B8D9C8D20E030E0F2
:103C00004AE755E40E941F02DC01CB018D8B9E8B9D
:103C1000AF8BB88F6D897E898F89988D20E030E0D9
:103C200040E85FE30E94250488232CF481E090E0C3
:103C30009C8B8B8B3FC06D897E898F89988D20E00E
:103C40003FEF4FE757E40E94C50318164CF5698D06
:103C50007A8D8B8D9C8D20E030E040E251E40E9413
:103C60001F02DC01CB01BC01CD010E944900DC0137
:103C7000CB019C8B8B8B0FC080E991E09A8B898B59
:103C800089899A890197F1F79A8B898B8B899C890D
:103C900001979C8B8B8B8B899C89009769F714C04B
:103CA0006D897E898F89988D0E944900DC01CB0146
:103CB0009C8B8B8B8B899C89988B8F878F85988920
:103CC0000197F1F7988B8F8780E00E94181782E0A8
:103CD0000E94181781E00E94181780E090E0AAEF78
:103CE000B3E48B879C87AD87BE876B857C858D858C
:103CF0009E8520E030E04AE755E40E941F02DC0187
:103D0000CB018F839887A987BA876F81788589854A
:103D10009A8520E030E040E85FE30E942504882394
:103D20002CF481E090E09E838D833FC06F81788585
:103D300089859A8520E03FEF4FE757E40E94C5034D
:103D400018164CF56B857C858D859E8520E030E0CE
:103D500040E251E40E941F02DC01CB01BC01CD0115
:103D60000E944900DC01CB019E838D830FC080E956
:103D700091E09C838B838B819C810197F1F79C83DD
:103D80008B838D819E8101979E838D838D819E8102
:103D9000009769F714C06F81788589859A850E949C
:103DA0004900DC01CB019E838D838D819E819A83A6
:103DB000898389819A810197F1F79A8389836C9627
:103DC0000FB6F894DEBF0FBECDBFCF91DF9108953F
:103DD000DF93CF93CDB7DEB7AA970FB6F894DEBFC7
:103DE0000FBECDBF80E061E041E00E949A0C80E010
:103DF00062E041E00E949A0C80E066E041E00E94AF
:103E00009A0C80E065E041E00E949A0C80E064E05A
:103E100041E00E949A0C80E063E041E00E949A0C2D
:103E200080E090E0ACE0B2E48FA398A7A9A7BAA77E
:103E30006FA178A589A59AA520E030E04AE755E46E
:103E40000E941F02DC01CB018BA39CA3ADA3BEA3E8
:103E50006BA17CA18DA19EA120E030E040E85FE352
:103E60000E94250488232CF481E090E09AA389A382
:103E70003FC06BA17CA18DA19EA120E03FEF4FE749
:103E800057E40E94C50318164CF56FA178A589A5C3
:103E90009AA520E030E040E251E40E941F02DC01DC
:103EA000CB01BC01CD010E944900DC01CB019AA3EA
:103EB00089A30FC080E991E098A38F8F8F8D98A17F
:103EC0000197F1F798A38F8F89A19AA101979AA3DF
:103ED00089A389A19AA1009769F714C06BA17CA15D
:103EE0008DA19EA10E944900DC01CB019AA389A368
:103EF00089A19AA19E8F8D8F8D8D9E8D0197F1F74F
:103F00009E8F8D8F80E061E040E00E94B10D80E0E7
:103F100062E040E00E94B10D80E066E040E00E9477
:103F2000B10D80E065E040E00E94B10D80E064E00A
:103F300041E00E94B10D80E063E040E00E94B10DDD
:103F400080E062E041E00E94B10D80E090E0A0E8F6
:103F5000BFE3898F9A8FAB8FBC8F698D7A8D8B8DE4
:103F60009C8D20E030E04AE755E40E941F02DC010E
:103F7000CB018D8B9E8BAF8BB88F6D897E898F899E
:103F8000988D20E030E040E85FE30E94250488231C
:103F90002CF481E090E09C8B8B8B3FC06D897E89F7
:103FA0008F89988D20E03FEF4FE757E40E94C503CB
:103FB00018164CF5698D7A8D8B8D9C8D20E030E044
:103FC00040E251E40E941F02DC01CB01BC01CD01A3
:103FD0000E944900DC01CB019C8B8B8B0FC080E9D8
:103FE00091E09A8B898B89899A890197F1F79A8B4D
:103FF000898B8B899C8901979C8B8B8B8B899C8966
:10400000009769F714C06D897E898F89988D0E9409
:104010004900DC01CB019C8B8B8B8B899C89988B15
:104020008F878F8598890197F1F7988B8F8780E02C
:1040300062E040E00E94B10D80E090E0A0EAB0E4D0
:104040008B879C87AD87BE876B857C858D859E859C
:1040500020E030E04AE755E40E941F02DC01CB017A
:104060008F839887A987BA876F81788589859A8594
:1040700020E030E040E85FE30E94250488232CF430
:1040800081E090E09E838D833FC06F817885898534
:104090009A8520E03FEF4FE757E40E94C5031816CA
:1040A0004CF56B857C858D859E8520E030E040E277
:1040B00051E40E941F02DC01CB01BC01CD010E9432
:1040C0004900DC01CB019E838D830FC080E991E024
:1040D0009C838B838B819C810197F1F79C838B83DD
:1040E0008D819E8101979E838D838D819E81009716
:1040F00069F714C06F81788589859A850E94490087
:10410000DC01CB019E838D838D819E819A8389837F
:1041100089819A810197F1F79A83898388E20E94C5
:10412000B5208EE00E94B52081E00E94B52086E097
:104130000E94B520AA960FB6F894DEBF0FBECDBF81
:10414000CF91DF910895DF93CF930F92CDB7DEB774
:10415000898380E061E041E00E94B10D89810E9485
:10416000CF210F90CF91DF910895DF93CF930F92DE
:10417000CDB7DEB7898380E061E040E00E94B10DF9
:1041800089810E94CF210F90CF91DF910895DF9315
:10419000CF9300D0CDB7DEB79A8389830AC0E98177
:1041A000FA8180810E94A32089819A8101969A8355
:1041B0008983E981FA818081882389F70F900F90A4
:1041C000CF91DF910895DF93CF93CDB7DEB781E034
:1041D0000E94B520CF91DF9108950F931F93DF9335
:1041E000CF93CDB7DEB72F970FB6F894DEBF0FBED3
:1041F000CDBF6C877D878E879F878AE0FE013296D0
:10420000DF01982F1D929A95E9F719828C859D857B
:10421000AE85BF850097A105B10521F480E30E941A
:10422000A32069C08C859D85AE85BF85BB230CF01E
:1042300042C08DE20E94A3208C859D85AE85BF85FE
:10424000B095A095909581959F4FAF4FBF4F8C87AC
:104250009D87AE87BF872FC08981082F112707FD53
:1042600010958C859D85AE85BF852AE030E040E0C5
:1042700050E0BC01CD010E942026DC01CB01282F9B
:10428000CE010296FC01E00FF11F20838C859D85F5
:10429000AE85BF852AE030E040E050E0BC01CD01B2
:1042A0000E942026DA01C9018C879D87AE87BF87CF
:1042B00089818F5F89838C859D85AE85BF850097B9
:1042C000A105B10549F689818150898311C0898191
:1042D000282F332727FD3095CE010296FC01E20FEF
:1042E000F31F8081805D0E94A32089818150898392
:1042F0008981882364F72F960FB6F894DEBF0FBE2E
:10430000CDBFCF91DF911F910F910895DF93CF9390
:1043100000D000D0CDB7DEB789836A838981882336
:1043200019F089818130D9F48A818031C0F4898182
:10433000282F30E03C832B838B819C81009731F0C8
:104340002B813C812130310531F009C08A818058B0
:104350000E94B52004C08A8180540E94B5200F902D
:104360000F900F900F90CF91DF910895DF93CF932F
:1043700000D00F92CDB7DEB79A8389836B830F90FD
:104380000F900F90CF91DF910895DF93CF930F920D
:10439000CDB7DEB789830F90CF91DF910895DF937A
:1043A000CF93CDB7DEB7E9970FB6F894DEBF0FBE57
:1043B000CDBF89AF80E062E040E00E94B10D89ADE1
:1043C00082958F70982F917080E063E0492F0E9452
:1043D000B10D89AD829586958770982F917080E098
:1043E00064E0492F0E94B10D89AD8295869586952E
:1043F0008370982F917080E065E0492F0E94B10D85
:1044000089AD982F991F9927991F80E066E0492F61
:104410000E94B10D80E062E041E00E94B10D80E0B9
:1044200090E0A0E8BFE38DAB9EABAFABB8AF6DA99A
:104430007EA98FA998AD20E030E04AE755E40E94BC
:104440001F02DC01CB0189AB9AABABABBCAB69A95A
:104450007AA98BA99CA920E030E040E85FE30E94A4
:10446000250488232CF481E090E098AB8FA73FC00F
:1044700069A97AA98BA99CA920E03FEF4FE757E4EF
:104480000E94C50318164CF56DA97EA98FA998AD99
:1044900020E030E040E251E40E941F02DC01CB0149
:1044A000BC01CD010E944900DC01CB0198AB8FA774
:1044B0000FC080E991E09EA78DA78DA59EA50197CD
:1044C000F1F79EA78DA78FA598A9019798AB8FA705
:1044D0008FA598A9009769F714C069A97AA98BA933
:1044E0009CA90E944900DC01CB0198AB8FA78FA546
:1044F00098A99CA78BA78BA59CA50197F1F79CA7D2
:104500008BA780E062E040E00E94B10D80E090E087
:10451000A0EAB0E48FA398A7A9A7BAA76FA178A52E
:1045200089A59AA520E030E04AE755E40E941F02E1
:10453000DC01CB018BA39CA3ADA3BEA36BA17CA18B
:104540008DA19EA120E030E040E85FE30E942504B9
:1045500088232CF481E090E09AA389A33FC06BA14B
:104560007CA18DA19EA120E03FEF4FE757E40E9480
:10457000C50318164CF56FA178A589A59AA520E06A
:1045800030E040E251E40E941F02DC01CB01BC019B
:10459000CD010E944900DC01CB019AA389A30FC081
:1045A00080E991E098A38F8F8F8D98A10197F1F703
:1045B00098A38F8F89A19AA101979AA389A389A112
:1045C0009AA1009769F714C06BA17CA18DA19EA14F
:1045D0000E944900DC01CB019AA389A389A19AA179
:1045E0009E8F8D8F8D8D9E8D0197F1F79E8F8D8F74
:1045F00089AD982F917080E063E0492F0E94B10D42
:1046000089AD8695982F917080E064E0492F0E94D3
:10461000B10D89AD86958695982F917080E065E003
:10462000492F0E94B10D89AD869586958695982F64
:10463000917080E066E0492F0E94B10D80E062E059
:1046400041E00E94B10D80E090E0A0E8BFE3898FD7
:104650009A8FAB8FBC8F698D7A8D8B8D9C8D20E06E
:1046600030E04AE755E40E941F02DC01CB018D8B4C
:104670009E8BAF8BB88F6D897E898F89988D20E056
:1046800030E040E85FE30E94250488232CF481E0B9
:1046900090E09C8B8B8B3FC06D897E898F89988D34
:1046A00020E03FEF4FE757E40E94C50318164CF592
:1046B000698D7A8D8B8D9C8D20E030E040E251E455
:1046C0000E941F02DC01CB01BC01CD010E94490008
:1046D000DC01CB019C8B8B8B0FC080E991E09A8B26
:1046E000898B89899A890197F1F79A8B898B8B89B4
:1046F0009C8901979C8B8B8B8B899C89009769F790
:1047000014C06D897E898F89988D0E944900DC01D3
:10471000CB019C8B8B8B8B899C89988B8F878F850A
:1047200098890197F1F7988B8F8780E062E040E0ED
:104730000E94B10D80E090E0A0EAB0E48B879C87F6
:10474000AD87BE876B857C858D859E8520E030E0BA
:104750004AE755E40E941F02DC01CB018F83988752
:10476000A987BA876F81788589859A8520E030E0AE
:1047700040E85FE30E94250488232CF481E090E068
:104780009E838D833FC06F81788589859A8520E0DF
:104790003FEF4FE757E40E94C50318164CF56B85B1
:1047A0007C858D859E8520E030E040E251E40E94CA
:1047B0001F02DC01CB01BC01CD010E944900DC01DC
:1047C000CB019E838D830FC080E991E09C838B8316
:1047D0008B819C810197F1F79C838B838D819E81D6
:1047E00001979E838D838D819E81009769F714C008
:1047F0006F81788589859A850E944900DC01CB010B
:104800009E838D838D819E819A83898389819A81FC
:104810000197F1F79A838983E9960FB6F894DEBF82
:104820000FBECDBFCF91DF910895DF93CF93CDB76A
:10483000DEB781E064E041E00E949A0C81E065E02F
:1048400041E00E949A0C81E066E041E00E949A0CEF
:1048500081E067E041E00E949A0C83E062E040E082
:104860000E949A0C83E063E040E00E949A0C83E08F
:1048700064E040E00E949A0C83E065E040E00E9422
:104880009A0C81E064E041E00E94B10D81E065E0B6
:1048900041E00E94B10D81E066E041E00E94B10D6F
:1048A00081E067E041E00E94B10DCF91DF91089572
:1048B000DF93CF93CDB7DEB7A8970FB6F894DEBFDE
:1048C0000FBECDBF8FEF898BCE0142969DA38CA3E7
:1048D000ECE7F1E0FFA3EEA3F0E1F8A7EEA1FFA162
:1048E00000808EA19FA101969FA38EA3ECA1FDA1A4
:1048F00000828CA19DA101969DA38CA398A59150A7
:1049000098A7E8A5EE2351F784E0888BC9C081E021
:10491000688940E00E94B10D82E08F87B5C09E019A
:104920002E5D3F4F83E06F85A9010E94C80E8AA1CA
:10493000882309F0A6C080E090E0A8ECB2E48B8761
:104940009C87AD87BE876B857C858D859E8520E0A5
:1049500030E04AE755E40E941F02DC01CB018F835F
:104960009887A987BA876F81788589859A8520E09D
:1049700030E040E85FE30E94250488232CF481E0C6
:1049800090E09E838D833FC06F81788589859A856D
:1049900020E03FEF4FE757E40E94C50318164CF59F
:1049A0006B857C858D859E8520E030E040E251E47A
:1049B0000E941F02DC01CB01BC01CD010E94490015
:1049C000DC01CB019E838D830FC080E991E09C8345
:1049D0008B838B819C810197F1F79C838B838D81E5
:1049E0009E8101979E838D838D819E81009769F7BB
:1049F00014C06F81788589859A850E944900DC0101
:104A0000CB019E838D838D819E819A838983898149
:104A10009A810197F1F79A8389839E012E5D3F4F1A
:104A200083E06F85A9010E94C80E8AA1882349F5F9
:104A300008C09E012E5D3F4F83E06F85A9010E9453
:104A4000C80E8AA18823A9F38889882F90E09C0149
:104A5000245030408F85882F90E0AC014250504068
:104A6000220F331F220F331FCE010196820F931F97
:104A7000840F951FFC0171968081898BF989FBA3B6
:104A800015C08F858F5F8F878F85863008F447CF5D
:104A900081E0688941E00E94B10D88898F5F888B31
:104AA0008889883008F433CF89898BA38BA1A89695
:104AB0000FB6F894DEBF0FBECDBFCF91DF91089542
:104AC000DF93CF93CDB7DEB72E970FB6F894DEBF46
:104AD0000FBECDBF0E94870A81E40E94B20A80E027
:104AE00090E0AAE7B4E48B879C87AD87BE876B858F
:104AF0007C858D859E8520E030E04AE755E40E9464
:104B00001F02DC01CB018F839887A987BA876F8149
:104B1000788589859A8520E030E040E85FE30E944F
:104B2000250488232CF481E090E09E838D833FC090
:104B30006F81788589859A8520E03FEF4FE757E4BC
:104B40000E94C50318164CF56B857C858D859E8566
:104B500020E030E040E251E40E941F02DC01CB0182
:104B6000BC01CD010E944900DC01CB019E838D83F5
:104B70000FC080E991E09C838B838B819C8101979E
:104B8000F1F79C838B838D819E8101979E838D831A
:104B90008D819E81009769F79FCF6F817885898588
:104BA0009A850E944900DC01CB019E838D838D8113
:104BB0009E819A83898389819A810197F1F79A83EB
:104BC00089838ACF629FD001739FF001829FE00D9D
:104BD000F11D649FE00DF11D929FF00D839FF00D7C
:104BE000749FF00D659FF00D9927729FB00DE11D28
:104BF000F91F639FB00DE11DF91FBD01CF01112405
:104C00000895991B79E004C0991F961708F0961B28
:104C1000881F7A95C9F78095089597FB092E072676
:104C20000AD077FD04D027D006D000201AF4709562
:104C300061957F4F0895F6F7909581959F4F089560
:104C400097FB092E05260ED057FD04D028D00AD098
:104C5000001C38F450954095309521953F4F4F4FAB
:104C60005F4F0895F6F790958095709561957F4F09
:104C70008F4F9F4F0895AA1BBB1B51E107C0AA1F6E
:104C8000BB1FA617B70710F0A61BB70B881F991FED
:104C90005A95A9F780959095BC01CD010895A1E2A0
:104CA0001A2EAA1BBB1BFD010DC0AA1FBB1FEE1FA6
:104CB000FF1FA217B307E407F50720F0A21BB30BF1
:104CC000E40BF50B661F771F881F991F1A9469F76D
:104CD00060957095809590959B01AC01BD01CF01C9
:104CE00008952F923F924F925F926F927F928F9290
:104CF0009F92AF92BF92CF92DF92EF92FF920F936B
:104D00001F93CF93DF93CDB7DEB7CA1BDB0B0FB674
:104D1000F894DEBF0FBECDBF09942A883988488831
:104D20005F846E847D848C849B84AA84B984C884C7
:104D3000DF80EE80FD800C811B81AA81B981CE0FBE
:104D4000D11D0FB6F894DEBF0FBECDBFED010895A3
:044D5000F894FFCF05
:104D5400000000000000000000010202030303033E
:104D640004040404040404040505050505050505F7
:104D740005050505050505050606060606060606D7
:104D840006060606060606060606060606060606BF
:104D940006060606060606060707070707070707A7
:104DA400070707070707070707070707070707078F
:104DB400070707070707070707070707070707077F
:104DC400070707070707070707070707070707076F
:104DD4000707070707070707080808080808080857
:104DE400080808080808080808080808080808083F
:104DF400080808080808080808080808080808082F
:104E0400080808080808080808080808080808081E
:104E1400080808080808080808080808080808080E
:104E240008080808080808080808080808080808FE
:104E340008080808080808080808080808080808EE
:104E440008080808080808080808080808080808DE
:104E54000808080808080808010000000800000005
:104E640040000000000100000004000001020304EF
:0C4E740005060708090A0B0C0D0E0F10B4
:00000001FF
